{
  "_format": "hh-sol-artifact-1",
  "contractName": "TicTacToe",
  "sourceName": "contracts/TicTacToe.sol",
  "abi": [
    {
      "inputs": [],
      "stateMutability": "nonpayable",
      "type": "constructor"
    },
    {
      "anonymous": false,
      "inputs": [
        {
          "indexed": true,
          "internalType": "address",
          "name": "_player2",
          "type": "address"
        },
        {
          "indexed": true,
          "internalType": "uint256",
          "name": "_gameId",
          "type": "uint256"
        }
      ],
      "name": "AcceptInvitation",
      "type": "event"
    },
    {
      "anonymous": false,
      "inputs": [
        {
          "indexed": true,
          "internalType": "address",
          "name": "_declinedPlayer",
          "type": "address"
        },
        {
          "indexed": true,
          "internalType": "uint256",
          "name": "_gameId",
          "type": "uint256"
        }
      ],
      "name": "Declined",
      "type": "event"
    },
    {
      "anonymous": false,
      "inputs": [
        {
          "indexed": true,
          "internalType": "address",
          "name": "_player1",
          "type": "address"
        },
        {
          "indexed": true,
          "internalType": "address",
          "name": "_player2",
          "type": "address"
        },
        {
          "indexed": true,
          "internalType": "uint256",
          "name": "_gameId",
          "type": "uint256"
        }
      ],
      "name": "Start",
      "type": "event"
    },
    {
      "anonymous": false,
      "inputs": [
        {
          "indexed": true,
          "internalType": "uint256",
          "name": "_gameId",
          "type": "uint256"
        }
      ],
      "name": "Tie",
      "type": "event"
    },
    {
      "anonymous": false,
      "inputs": [
        {
          "indexed": true,
          "internalType": "address",
          "name": "_player",
          "type": "address"
        },
        {
          "indexed": true,
          "internalType": "uint256",
          "name": "_gameId",
          "type": "uint256"
        },
        {
          "indexed": false,
          "internalType": "uint8",
          "name": "x",
          "type": "uint8"
        },
        {
          "indexed": false,
          "internalType": "uint8",
          "name": "y",
          "type": "uint8"
        }
      ],
      "name": "Turn",
      "type": "event"
    },
    {
      "anonymous": false,
      "inputs": [
        {
          "indexed": true,
          "internalType": "address",
          "name": "_winner",
          "type": "address"
        },
        {
          "indexed": true,
          "internalType": "uint256",
          "name": "_gameId",
          "type": "uint256"
        }
      ],
      "name": "Won",
      "type": "event"
    },
    {
      "inputs": [
        {
          "internalType": "uint256",
          "name": "_gameId",
          "type": "uint256"
        }
      ],
      "name": "acceptInvitation",
      "outputs": [],
      "stateMutability": "nonpayable",
      "type": "function"
    },
    {
      "inputs": [
        {
          "internalType": "uint256",
          "name": "_gameId",
          "type": "uint256"
        }
      ],
      "name": "decline",
      "outputs": [],
      "stateMutability": "nonpayable",
      "type": "function"
    },
    {
      "inputs": [
        {
          "internalType": "uint256",
          "name": "_gameId",
          "type": "uint256"
        }
      ],
      "name": "getGameField",
      "outputs": [
        {
          "internalType": "enum ITicTacToe.Cell[3][3]",
          "name": "",
          "type": "uint8[3][3]"
        }
      ],
      "stateMutability": "view",
      "type": "function"
    },
    {
      "inputs": [
        {
          "internalType": "uint256",
          "name": "_gameId",
          "type": "uint256"
        }
      ],
      "name": "getGameInfo",
      "outputs": [
        {
          "components": [
            {
              "internalType": "address[2]",
              "name": "players",
              "type": "address[2]"
            },
            {
              "internalType": "enum ITicTacToe.State",
              "name": "state",
              "type": "uint8"
            },
            {
              "internalType": "address",
              "name": "turn",
              "type": "address"
            },
            {
              "internalType": "enum ITicTacToe.Cell[3][3]",
              "name": "cells",
              "type": "uint8[3][3]"
            }
          ],
          "internalType": "struct ITicTacToe.Game",
          "name": "",
          "type": "tuple"
        }
      ],
      "stateMutability": "view",
      "type": "function"
    },
    {
      "inputs": [
        {
          "internalType": "address",
          "name": "_opponent",
          "type": "address"
        }
      ],
      "name": "invite",
      "outputs": [],
      "stateMutability": "nonpayable",
      "type": "function"
    },
    {
      "inputs": [
        {
          "internalType": "uint256",
          "name": "_gameId",
          "type": "uint256"
        },
        {
          "internalType": "uint8",
          "name": "x",
          "type": "uint8"
        },
        {
          "internalType": "uint8",
          "name": "y",
          "type": "uint8"
        }
      ],
      "name": "play",
      "outputs": [],
      "stateMutability": "nonpayable",
      "type": "function"
    },
    {
      "inputs": [],
      "name": "totalGamesCount",
      "outputs": [
        {
          "internalType": "uint256",
          "name": "",
          "type": "uint256"
        }
      ],
      "stateMutability": "view",
      "type": "function"
    },
    {
      "inputs": [
        {
          "internalType": "address",
          "name": "_winner",
          "type": "address"
        }
      ],
      "name": "winCount",
      "outputs": [
        {
          "internalType": "uint256",
          "name": "",
          "type": "uint256"
        }
      ],
      "stateMutability": "view",
      "type": "function"
    }
  ],
  "bytecode": "0x608060405234801561001057600080fd5b506115b7806100206000396000f3fe608060405234801561001057600080fd5b50600436106100885760003560e01c806354bd50231161005b57806354bd5023146100f15780636a9424da14610128578063a0355f4e14610148578063f593a3871461015b57600080fd5b80631847b7fb1461008d578063464c5b6c146100a257806347e1d550146100b55780634b77c468146100de575b600080fd5b6100a061009b366004611339565b610163565b005b6100a06100b0366004611375565b61075f565b6100c86100c3366004611375565b61081c565b6040516100d5919061141e565b60405180910390f35b6100a06100ec36600461149c565b61096c565b61011a6100ff36600461149c565b6001600160a01b031660009081526001602052604090205490565b6040519081526020016100d5565b61013b610136366004611375565b610afe565b6040516100d591906114cc565b6100a0610156366004611375565b610bc1565b60005461011a565b82600080828154811061017857610178611504565b60009182526020822060069091020191508101546001600160a01b03163314806101ae575080600101546001600160a01b031633145b6101ff5760405162461bcd60e51b815260206004820181905260248201527f596f7520617265206e6f7420696e766964656420746f20746869732067616d6560448201526064015b60405180910390fd5b84600080828154811061021457610214611504565b6000918252602082206002600690920201015460ff16915081600481111561023e5761023e61138e565b146102805760405162461bcd60e51b815260206004820152601260248201527147616d65206973206e6f742061637469766560701b60448201526064016101f6565b86336001600160a01b03166000828154811061029e5761029e611504565b600091825260209091206006909102016002015461010090046001600160a01b0316146102fd5760405162461bcd60e51b815260206004820152600d60248201526c2737ba103cb7bab9103a3ab93760991b60448201526064016101f6565b600080898154811061031157610311611504565b9060005260206000209060060201905060038860ff16108015610337575060038760ff16105b6103775760405162461bcd60e51b815260206004820152601160248201527057726f6e6720636f6f7264696e6174657360781b60448201526064016101f6565b6000816003018960ff166003811061039157610391611504565b018860ff16600381106103a6576103a6611504565b602081049091015460ff601f9092166101000a90041660028111156103cd576103cd61138e565b146104135760405162461bcd60e51b8152602060048201526016602482015275546869732063656c6c206973206e6f7420656d70747960501b60448201526064016101f6565b3381600001546001600160a01b0316036104b6576001816003018960ff166003811061044157610441611504565b018860ff166003811061045657610456611504565b602091828204019190066101000a81548160ff0219169083600281111561047f5761047f61138e565b021790555080600101546002820180546001600160a01b0390921661010002610100600160a81b031990921691909117905561053e565b6002816003018960ff16600381106104d0576104d0611504565b018860ff16600381106104e5576104e5611504565b602091828204019190066101000a81548160ff0219169083600281111561050e5761050e61138e565b021790555080546002820180546001600160a01b0390921661010002610100600160a81b03199092169190911790555b6040805160ff808b168252891660208201528a9133917fe7520377f21ddceb990b912ced9bb077076f9d4439abd621cc065f628559e32b910160405180910390a36040805160608101909152610616906003808401906000835b8282101561060d576040805160608101918290529085840190600390826000855b82829054906101000a900460ff1660028111156105d8576105d861138e565b8152602060019283018181049485019490930390920291018084116105b9579050505050505081526020019060010190610598565b50505050610d3f565b1561067c5760028101805460ff19166001179055604051899033907f8b01f9dd0400d6a1e84369a5fb8f6033934856ffa8ebadd707dca302ab55169590600090a333600090815260016020526040812080549161067283611530565b9190505550610754565b6040805160608101909152610713906003808401906000835b8282101561070a576040805160608101918290529085840190600390826000855b82829054906101000a900460ff1660028111156106d5576106d561138e565b8152602060019283018181049485019490930390920291018084116106b6579050505050505081526020019060010190610695565b50505050611096565b15610754576002818101805460ff1916909117905560405189907f3ac5b9930a654ef11ca1c2834208b23516317e06d7a0730e33f1f0dee306e11690600090a25b505050505050505050565b600080828154811061077357610773611504565b60009182526020909120600690910201905080600101546001600160a01b031633146107e15760405162461bcd60e51b815260206004820181905260248201527f596f7520617265206e6f7420696e766974656420746f20746869732067616d6560448201526064016101f6565b604051829033907fd61952bae29baf8577efd4bb9c2c44747517040722550a1ef7b45681237bd82e90600090a3600201805460ff1916905550565b610824611138565b6000828154811061083757610837611504565b600091825260209091206040805160c08101909152916006020181608081018260028282826020028201915b81546001600160a01b03168152600190910190602001808311610863575050509183525050600282015460209091019060ff1660048111156108a7576108a761138e565b60048111156108b8576108b861138e565b8152600282015461010090046001600160a01b03166020820152604080516060810182529101906003808401906000835b8282101561095e576040805160608101918290529085840190600390826000855b82829054906101000a900460ff1660028111156109295761092961138e565b81526020600192830181810494850194909303909202910180841161090a5790505050505050815260200190600101906108e9565b505050915250909392505050565b6001600160a01b0381166109c25760405162461bcd60e51b815260206004820152601f60248201527f4f70706f6e656e742063616e6e6f742062652061646472657373206f6620300060448201526064016101f6565b6109ca61116b565b6040805160c08101825233608082018181526001600160a01b03861660a0840152825260036020830152918101919091526060810182905260008054600181018255908052815182916006027f290decd9548b62a8d60345a988386fc84ba6bc95484008f6362f93160ef3e5630190610a469082906002611198565b50602082015160028201805460ff19166001836004811115610a6a57610a6a61138e565b021790555060408201516002820180546001600160a01b0390921661010002610100600160a81b03199092169190911790556060820151610ab190600380840191906111f0565b5050600054610ac39150600190611549565b6040516001600160a01b0385169033907fdaa62f5dc391112de521eb5e9f1aea5ec7510337948f8b903bcfc40ccdc8c3e290600090a4505050565b610b0661116b565b60008281548110610b1957610b19611504565b9060005260206000209060060201600301600380602002604051908101604052809291906000905b82821015610bb6576040805160608101918290529085840190600390826000855b82829054906101000a900460ff166002811115610b8157610b8161138e565b815260206001928301818104948501949093039092029101808411610b62579050505050505081526020019060010190610b41565b505050509050919050565b806000808281548110610bd657610bd6611504565b60009182526020822060069091020191508101546001600160a01b0316331480610c0c575080600101546001600160a01b031633145b610c585760405162461bcd60e51b815260206004820181905260248201527f596f7520617265206e6f7420696e766964656420746f20746869732067616d6560448201526064016101f6565b6000808481548110610c6c57610c6c611504565b6000918252602082206006909102019150600282015460ff166004811115610c9657610c9661138e565b1480610cba57506003600282015460ff166004811115610cb857610cb861138e565b145b610cfd5760405162461bcd60e51b815260206004820152601460248201527323b0b6b29034b99030b63932b0b23c9037bb32b960611b60448201526064016101f6565b60028101805460ff19166004179055604051849033907ff01ffb9bc3b6819e56e3eb6e956320fb8f22e6226eb649778b2df18f2c61f5b990600090a350505050565b6000805b60038160ff161015610f6957828160ff1660038110610d6457610d64611504565b6020020151600160200201516002811115610d8157610d8161138e565b838260ff1660038110610d9657610d96611504565b6020020151516002811115610dad57610dad61138e565b148015610e125750828160ff1660038110610dca57610dca611504565b6020020151604001516002811115610de457610de461138e565b838260ff1660038110610df957610df9611504565b6020020151516002811115610e1057610e1061138e565b145b8015610e4a57506000838260ff1660038110610e3057610e30611504565b6020020151516002811115610e4757610e4761138e565b14155b80610f495750602083015160ff821660038110610e6957610e69611504565b60200201516002811115610e7f57610e7f61138e565b835160ff831660038110610e9557610e95611504565b60200201516002811115610eab57610eab61138e565b148015610f105750604083015160ff821660038110610ecc57610ecc611504565b60200201516002811115610ee257610ee261138e565b835160ff831660038110610ef857610ef8611504565b60200201516002811115610f0e57610f0e61138e565b145b8015610f495750825160009060ff831660038110610f3057610f30611504565b60200201516002811115610f4657610f4661138e565b14155b15610f575750600192915050565b80610f6181611562565b915050610d43565b5060208083015101516002811115610f8357610f8361138e565b8251516002811115610f9757610f9761138e565b148015610fce575060408083015101516002811115610fb857610fb861138e565b8251516002811115610fcc57610fcc61138e565b145b8015610fef57508151516000906002811115610fec57610fec61138e565b14155b8061108157506020808301510151600281111561100e5761100e61138e565b82516040015160028111156110255761102561138e565b14801561105d575060408201515160028111156110445761104461138e565b825160400151600281111561105b5761105b61138e565b145b80156110815750815160400151600090600281111561107e5761107e61138e565b14155b1561108e57506001919050565b506000919050565b6000805b60038160ff16101561112f5760005b60038160ff16101561111c576000848360ff16600381106110cc576110cc611504565b60200201518260ff16600381106110e5576110e5611504565b602002015160028111156110fb576110fb61138e565b0361110a575060009392505050565b8061111481611562565b9150506110a9565b508061112781611562565b91505061109a565b50600192915050565b604051806080016040528061114b611236565b8152602001600081526000602082015260400161116661116b565b905290565b60405180606001604052806003905b611182611254565b81526020019060019003908161117a5790505090565b82600281019282156111e0579160200282015b828111156111e057825182546001600160a01b0319166001600160a01b039091161782556020909201916001909101906111ab565b506111ec929150611272565b5090565b826003810192821561122a579160200282015b8281111561122a57825161121a9083906003611287565b5091602001919060010190611203565b506111ec929150611273565b60405180604001604052806002906020820280368337509192915050565b60405180606001604052806003906020820280368337509192915050565b5b808211156111ec5760008155600101611273565b6001830191839082156111e05791602002820160005b838211156112e957835183826101000a81548160ff021916908360028111156112c8576112c861138e565b0217905550926020019260010160208160000104928301926001030261129d565b80156113165782816101000a81549060ff02191690556001016020816000010492830192600103026112e9565b50506111ec929150611272565b803560ff8116811461133457600080fd5b919050565b60008060006060848603121561134e57600080fd5b8335925061135e60208501611323565b915061136c60408501611323565b90509250925092565b60006020828403121561138757600080fd5b5035919050565b634e487b7160e01b600052602160045260246000fd5b60008282825b60038082106113b957506113e0565b82518181106113ca576113ca61138e565b84525060209283019291909101906001016113aa565b50505060608301905092915050565b8060005b6003811015611418576114078483516113a4565b9350602091909101906001016113f3565b50505050565b81516101a08201908260005b60028110156114525782516001600160a01b031682526020928301929091019060010161142a565b50505060208301516005811061146a5761146a61138e565b8060408401525060018060a01b036040840151166060830152606083015161149560808401826113ef565b5092915050565b6000602082840312156114ae57600080fd5b81356001600160a01b03811681146114c557600080fd5b9392505050565b6101208101818360005b60038110156114fb576114ea8383516113a4565b9250602091909101906001016114d6565b50505092915050565b634e487b7160e01b600052603260045260246000fd5b634e487b7160e01b600052601160045260246000fd5b6000600182016115425761154261151a565b5060010190565b8181038181111561155c5761155c61151a565b92915050565b600060ff821660ff81036115785761157861151a565b6001019291505056fea2646970667358221220b776b25e8fd9736a820cbb8dd44222962c4ad722153de5e24a8f3abeace5188e64736f6c63430008110033",
  "linkReferences": {},
  "deployedLinkReferences": {}
}