{
  "_format": "hh-sol-artifact-1",
  "contractName": "TicTacToe",
  "sourceName": "contracts/TicTacToe.sol",
  "abi": [
    {
      "inputs": [],
      "stateMutability": "nonpayable",
      "type": "constructor"
    },
    {
      "anonymous": false,
      "inputs": [
        {
          "indexed": true,
          "internalType": "address",
          "name": "_player2",
          "type": "address"
        },
        {
          "indexed": true,
          "internalType": "uint256",
          "name": "_gameId",
          "type": "uint256"
        }
      ],
      "name": "AcceptInvitation",
      "type": "event"
    },
    {
      "anonymous": false,
      "inputs": [
        {
          "indexed": true,
          "internalType": "address",
          "name": "_declinedPlayer",
          "type": "address"
        },
        {
          "indexed": true,
          "internalType": "uint256",
          "name": "_gameId",
          "type": "uint256"
        }
      ],
      "name": "Declined",
      "type": "event"
    },
    {
      "anonymous": false,
      "inputs": [
        {
          "indexed": true,
          "internalType": "address",
          "name": "_player1",
          "type": "address"
        },
        {
          "indexed": true,
          "internalType": "address",
          "name": "_player2",
          "type": "address"
        },
        {
          "indexed": true,
          "internalType": "uint256",
          "name": "_gameId",
          "type": "uint256"
        }
      ],
      "name": "Start",
      "type": "event"
    },
    {
      "anonymous": false,
      "inputs": [
        {
          "indexed": true,
          "internalType": "uint256",
          "name": "_gameId",
          "type": "uint256"
        }
      ],
      "name": "Tie",
      "type": "event"
    },
    {
      "anonymous": false,
      "inputs": [
        {
          "indexed": true,
          "internalType": "address",
          "name": "_player",
          "type": "address"
        },
        {
          "indexed": true,
          "internalType": "uint256",
          "name": "_gameId",
          "type": "uint256"
        },
        {
          "indexed": false,
          "internalType": "uint8",
          "name": "x",
          "type": "uint8"
        },
        {
          "indexed": false,
          "internalType": "uint8",
          "name": "y",
          "type": "uint8"
        }
      ],
      "name": "Turn",
      "type": "event"
    },
    {
      "anonymous": false,
      "inputs": [
        {
          "indexed": true,
          "internalType": "address",
          "name": "_winner",
          "type": "address"
        },
        {
          "indexed": true,
          "internalType": "uint256",
          "name": "_gameId",
          "type": "uint256"
        }
      ],
      "name": "Won",
      "type": "event"
    },
    {
      "inputs": [
        {
          "internalType": "uint256",
          "name": "_gameId",
          "type": "uint256"
        }
      ],
      "name": "acceptInvitation",
      "outputs": [],
      "stateMutability": "nonpayable",
      "type": "function"
    },
    {
      "inputs": [
        {
          "internalType": "uint256",
          "name": "_gameId",
          "type": "uint256"
        }
      ],
      "name": "decline",
      "outputs": [],
      "stateMutability": "nonpayable",
      "type": "function"
    },
    {
      "inputs": [
        {
          "internalType": "uint256",
          "name": "_gameId",
          "type": "uint256"
        }
      ],
      "name": "getGameField",
      "outputs": [
        {
          "internalType": "enum ITicTacToe.Cell[3][3]",
          "name": "",
          "type": "uint8[3][3]"
        }
      ],
      "stateMutability": "view",
      "type": "function"
    },
    {
      "inputs": [
        {
          "internalType": "uint256",
          "name": "_gameId",
          "type": "uint256"
        }
      ],
      "name": "getGameInfo",
      "outputs": [
        {
          "components": [
            {
              "internalType": "address[2]",
              "name": "players",
              "type": "address[2]"
            },
            {
              "internalType": "enum ITicTacToe.State",
              "name": "state",
              "type": "uint8"
            },
            {
              "internalType": "address",
              "name": "turn",
              "type": "address"
            },
            {
              "internalType": "enum ITicTacToe.Cell[3][3]",
              "name": "cells",
              "type": "uint8[3][3]"
            }
          ],
          "internalType": "struct ITicTacToe.Game",
          "name": "",
          "type": "tuple"
        }
      ],
      "stateMutability": "view",
      "type": "function"
    },
    {
      "inputs": [
        {
          "internalType": "address",
          "name": "_opponent",
          "type": "address"
        }
      ],
      "name": "invite",
      "outputs": [],
      "stateMutability": "nonpayable",
      "type": "function"
    },
    {
      "inputs": [
        {
          "internalType": "uint256",
          "name": "_gameId",
          "type": "uint256"
        },
        {
          "internalType": "uint8",
          "name": "x",
          "type": "uint8"
        },
        {
          "internalType": "uint8",
          "name": "y",
          "type": "uint8"
        }
      ],
      "name": "play",
      "outputs": [],
      "stateMutability": "nonpayable",
      "type": "function"
    },
    {
      "inputs": [],
      "name": "totalGamesCount",
      "outputs": [
        {
          "internalType": "uint256",
          "name": "",
          "type": "uint256"
        }
      ],
      "stateMutability": "view",
      "type": "function"
    },
    {
      "inputs": [
        {
          "internalType": "uint256",
          "name": "_gameId",
          "type": "uint256"
        }
      ],
      "name": "whoseTurn",
      "outputs": [
        {
          "internalType": "address",
          "name": "",
          "type": "address"
        }
      ],
      "stateMutability": "view",
      "type": "function"
    },
    {
      "inputs": [
        {
          "internalType": "address",
          "name": "_winner",
          "type": "address"
        }
      ],
      "name": "winCount",
      "outputs": [
        {
          "internalType": "uint256",
          "name": "",
          "type": "uint256"
        }
      ],
      "stateMutability": "view",
      "type": "function"
    },
    {
      "inputs": [
        {
          "internalType": "uint256",
          "name": "_gameId",
          "type": "uint256"
        }
      ],
      "name": "winner",
      "outputs": [
        {
          "internalType": "address",
          "name": "",
          "type": "address"
        }
      ],
      "stateMutability": "view",
      "type": "function"
    }
  ],
  "bytecode": "0x608060405234801561001057600080fd5b5061180f806100206000396000f3fe608060405234801561001057600080fd5b506004361061009e5760003560e01c806354bd50231161006657806354bd50231461012e5780636a9424da14610165578063a0355f4e14610185578063f593a38714610198578063fa9d3bad146101a057600080fd5b80631847b7fb146100a35780631cbeae5e146100b8578063464c5b6c146100e857806347e1d550146100fb5780634b77c4681461011b575b600080fd5b6100b66100b1366004611591565b6101b3565b005b6100cb6100c63660046115cd565b6107af565b6040516001600160a01b0390911681526020015b60405180910390f35b6100b66100f63660046115cd565b61087d565b61010e6101093660046115cd565b610999565b6040516100df9190611676565b6100b66101293660046116f4565b610ae9565b61015761013c3660046116f4565b6001600160a01b031660009081526001602052604090205490565b6040519081526020016100df565b6101786101733660046115cd565b610cd3565b6040516100df9190611724565b6100b66101933660046115cd565b610d96565b600054610157565b6100cb6101ae3660046115cd565b610f14565b8260008082815481106101c8576101c861175c565b60009182526020822060069091020191508101546001600160a01b03163314806101fe575080600101546001600160a01b031633145b61024f5760405162461bcd60e51b815260206004820181905260248201527f596f7520617265206e6f7420696e766964656420746f20746869732067616d6560448201526064015b60405180910390fd5b8460008082815481106102645761026461175c565b6000918252602082206002600690920201015460ff16915081600481111561028e5761028e6115e6565b146102d05760405162461bcd60e51b815260206004820152601260248201527147616d65206973206e6f742061637469766560701b6044820152606401610246565b86336001600160a01b0316600082815481106102ee576102ee61175c565b600091825260209091206006909102016002015461010090046001600160a01b03161461034d5760405162461bcd60e51b815260206004820152600d60248201526c2737ba103cb7bab9103a3ab93760991b6044820152606401610246565b60008089815481106103615761036161175c565b9060005260206000209060060201905060038860ff16108015610387575060038760ff16105b6103c75760405162461bcd60e51b815260206004820152601160248201527057726f6e6720636f6f7264696e6174657360781b6044820152606401610246565b6000816003018960ff16600381106103e1576103e161175c565b018860ff16600381106103f6576103f661175c565b602081049091015460ff601f9092166101000a900416600281111561041d5761041d6115e6565b146104635760405162461bcd60e51b8152602060048201526016602482015275546869732063656c6c206973206e6f7420656d70747960501b6044820152606401610246565b3381600001546001600160a01b031603610506576001816003018960ff16600381106104915761049161175c565b018860ff16600381106104a6576104a661175c565b602091828204019190066101000a81548160ff021916908360028111156104cf576104cf6115e6565b021790555080600101546002820180546001600160a01b0390921661010002610100600160a81b031990921691909117905561058e565b6002816003018960ff16600381106105205761052061175c565b018860ff16600381106105355761053561175c565b602091828204019190066101000a81548160ff0219169083600281111561055e5761055e6115e6565b021790555080546002820180546001600160a01b0390921661010002610100600160a81b03199092169190911790555b6040805160ff808b168252891660208201528a9133917fe7520377f21ddceb990b912ced9bb077076f9d4439abd621cc065f628559e32b910160405180910390a36040805160608101909152610666906003808401906000835b8282101561065d576040805160608101918290529085840190600390826000855b82829054906101000a900460ff166002811115610628576106286115e6565b8152602060019283018181049485019490930390920291018084116106095790505050505050815260200190600101906105e8565b50505050610f97565b156106cc5760028101805460ff19166001179055604051899033907f8b01f9dd0400d6a1e84369a5fb8f6033934856ffa8ebadd707dca302ab55169590600090a33360009081526001602052604081208054916106c283611788565b91905055506107a4565b6040805160608101909152610763906003808401906000835b8282101561075a576040805160608101918290529085840190600390826000855b82829054906101000a900460ff166002811115610725576107256115e6565b8152602060019283018181049485019490930390920291018084116107065790505050505050815260200190600101906106e5565b505050506112ee565b156107a4576002818101805460ff1916909117905560405189907f3ac5b9930a654ef11ca1c2834208b23516317e06d7a0730e33f1f0dee306e11690600090a25b505050505050505050565b600080600083815481106107c5576107c561175c565b6000918252602090912060069091020190506001600282015460ff1660048111156107f2576107f26115e6565b1461083f5760405162461bcd60e51b815260206004820152601760248201527f546869732067616d6520686173206e6f2077696e6e65720000000000000000006044820152606401610246565b805460028201546001600160a01b0391821661010090910490911603610875578060015b01546001600160a01b03169392505050565b806000610863565b60008082815481106108915761089161175c565b6000918252602090912060069091020190506003600282015460ff1660048111156108be576108be6115e6565b146109025760405162461bcd60e51b815260206004820152601460248201527323b0b6b29034b99030b63932b0b23c9037bb32b960611b6044820152606401610246565b80600101546001600160a01b0316331461095e5760405162461bcd60e51b815260206004820181905260248201527f596f7520617265206e6f7420696e766974656420746f20746869732067616d656044820152606401610246565b604051829033907fd61952bae29baf8577efd4bb9c2c44747517040722550a1ef7b45681237bd82e90600090a3600201805460ff1916905550565b6109a1611390565b600082815481106109b4576109b461175c565b600091825260209091206040805160c08101909152916006020181608081018260028282826020028201915b81546001600160a01b031681526001909101906020018083116109e0575050509183525050600282015460209091019060ff166004811115610a2457610a246115e6565b6004811115610a3557610a356115e6565b8152600282015461010090046001600160a01b03166020820152604080516060810182529101906003808401906000835b82821015610adb576040805160608101918290529085840190600390826000855b82829054906101000a900460ff166002811115610aa657610aa66115e6565b815260206001928301818104948501949093039092029101808411610a87579050505050505081526020019060010190610a66565b505050915250909392505050565b6001600160a01b038116610b3f5760405162461bcd60e51b815260206004820152601f60248201527f4f70706f6e656e742063616e6e6f742062652061646472657373206f662030006044820152606401610246565b336001600160a01b03821603610b975760405162461bcd60e51b815260206004820152601d60248201527f596f752063616e6e6f7420706c6179207769746820796f757273656c660000006044820152606401610246565b610b9f6113c3565b6040805160c08101825233608082018181526001600160a01b03861660a0840152825260036020830152918101919091526060810182905260008054600181018255908052815182916006027f290decd9548b62a8d60345a988386fc84ba6bc95484008f6362f93160ef3e5630190610c1b90829060026113f0565b50602082015160028201805460ff19166001836004811115610c3f57610c3f6115e6565b021790555060408201516002820180546001600160a01b0390921661010002610100600160a81b03199092169190911790556060820151610c869060038084019190611448565b5050600054610c9891506001906117a1565b6040516001600160a01b0385169033907fdaa62f5dc391112de521eb5e9f1aea5ec7510337948f8b903bcfc40ccdc8c3e290600090a4505050565b610cdb6113c3565b60008281548110610cee57610cee61175c565b9060005260206000209060060201600301600380602002604051908101604052809291906000905b82821015610d8b576040805160608101918290529085840190600390826000855b82829054906101000a900460ff166002811115610d5657610d566115e6565b815260206001928301818104948501949093039092029101808411610d37579050505050505081526020019060010190610d16565b505050509050919050565b806000808281548110610dab57610dab61175c565b60009182526020822060069091020191508101546001600160a01b0316331480610de1575080600101546001600160a01b031633145b610e2d5760405162461bcd60e51b815260206004820181905260248201527f596f7520617265206e6f7420696e766964656420746f20746869732067616d656044820152606401610246565b6000808481548110610e4157610e4161175c565b6000918252602082206006909102019150600282015460ff166004811115610e6b57610e6b6115e6565b1480610e8f57506003600282015460ff166004811115610e8d57610e8d6115e6565b145b610ed25760405162461bcd60e51b815260206004820152601460248201527323b0b6b29034b99030b63932b0b23c9037bb32b960611b6044820152606401610246565b60028101805460ff19166004179055604051849033907ff01ffb9bc3b6819e56e3eb6e956320fb8f22e6226eb649778b2df18f2c61f5b990600090a350505050565b60008060008381548110610f2a57610f2a61175c565b600091825260209091206002600690920201015460ff166004811115610f5257610f526115e6565b14610f5c57600080fd5b60008281548110610f6f57610f6f61175c565b600091825260209091206006909102016002015461010090046001600160a01b031692915050565b6000805b60038160ff1610156111c157828160ff1660038110610fbc57610fbc61175c565b6020020151600160200201516002811115610fd957610fd96115e6565b838260ff1660038110610fee57610fee61175c565b6020020151516002811115611005576110056115e6565b14801561106a5750828160ff16600381106110225761102261175c565b602002015160400151600281111561103c5761103c6115e6565b838260ff16600381106110515761105161175c565b6020020151516002811115611068576110686115e6565b145b80156110a257506000838260ff16600381106110885761108861175c565b602002015151600281111561109f5761109f6115e6565b14155b806111a15750602083015160ff8216600381106110c1576110c161175c565b602002015160028111156110d7576110d76115e6565b835160ff8316600381106110ed576110ed61175c565b60200201516002811115611103576111036115e6565b1480156111685750604083015160ff8216600381106111245761112461175c565b6020020151600281111561113a5761113a6115e6565b835160ff8316600381106111505761115061175c565b60200201516002811115611166576111666115e6565b145b80156111a15750825160009060ff8316600381106111885761118861175c565b6020020151600281111561119e5761119e6115e6565b14155b156111af5750600192915050565b806111b9816117ba565b915050610f9b565b50602080830151015160028111156111db576111db6115e6565b82515160028111156111ef576111ef6115e6565b148015611226575060408083015101516002811115611210576112106115e6565b8251516002811115611224576112246115e6565b145b801561124757508151516000906002811115611244576112446115e6565b14155b806112d9575060208083015101516002811115611266576112666115e6565b825160400151600281111561127d5761127d6115e6565b1480156112b55750604082015151600281111561129c5761129c6115e6565b82516040015160028111156112b3576112b36115e6565b145b80156112d9575081516040015160009060028111156112d6576112d66115e6565b14155b156112e657506001919050565b506000919050565b6000805b60038160ff1610156113875760005b60038160ff161015611374576000848360ff16600381106113245761132461175c565b60200201518260ff166003811061133d5761133d61175c565b60200201516002811115611353576113536115e6565b03611362575060009392505050565b8061136c816117ba565b915050611301565b508061137f816117ba565b9150506112f2565b50600192915050565b60405180608001604052806113a361148e565b815260200160008152600060208201526040016113be6113c3565b905290565b60405180606001604052806003905b6113da6114ac565b8152602001906001900390816113d25790505090565b8260028101928215611438579160200282015b8281111561143857825182546001600160a01b0319166001600160a01b03909116178255602090920191600190910190611403565b506114449291506114ca565b5090565b8260038101928215611482579160200282015b8281111561148257825161147290839060036114df565b509160200191906001019061145b565b506114449291506114cb565b60405180604001604052806002906020820280368337509192915050565b60405180606001604052806003906020820280368337509192915050565b5b8082111561144457600081556001016114cb565b6001830191839082156114385791602002820160005b8382111561154157835183826101000a81548160ff02191690836002811115611520576115206115e6565b021790555092602001926001016020816000010492830192600103026114f5565b801561156e5782816101000a81549060ff0219169055600101602081600001049283019260010302611541565b50506114449291506114ca565b803560ff8116811461158c57600080fd5b919050565b6000806000606084860312156115a657600080fd5b833592506115b66020850161157b565b91506115c46040850161157b565b90509250925092565b6000602082840312156115df57600080fd5b5035919050565b634e487b7160e01b600052602160045260246000fd5b60008282825b60038082106116115750611638565b8251818110611622576116226115e6565b8452506020928301929190910190600101611602565b50505060608301905092915050565b8060005b60038110156116705761165f8483516115fc565b93506020919091019060010161164b565b50505050565b81516101a08201908260005b60028110156116aa5782516001600160a01b0316825260209283019290910190600101611682565b5050506020830151600581106116c2576116c26115e6565b8060408401525060018060a01b03604084015116606083015260608301516116ed6080840182611647565b5092915050565b60006020828403121561170657600080fd5b81356001600160a01b038116811461171d57600080fd5b9392505050565b6101208101818360005b6003811015611753576117428383516115fc565b92506020919091019060010161172e565b50505092915050565b634e487b7160e01b600052603260045260246000fd5b634e487b7160e01b600052601160045260246000fd5b60006001820161179a5761179a611772565b5060010190565b818103818111156117b4576117b4611772565b92915050565b600060ff821660ff81036117d0576117d0611772565b6001019291505056fea2646970667358221220d9b2a4e829283d298c6b1adcab09a1cbce00976d91f2c137eec43f03545769d464736f6c63430008110033",
  "linkReferences": {},
  "deployedLinkReferences": {}
}